:100000000C943D010C945A010C945A010C945A0121
:100010000C945A010C945A010C945A010C945A01F4
:100020000C945A010C945A010C945A010C945A01E4
:100030000C945A010C945A010C945A010C945A01D4
:100040000C945A010C945A010C945A010C945A01C4
:100050000C945A010C945A010C945A010C945A01B4
:100060000C945A010C945A01000000000081811880
:1000700081810007000700147F147F14242A7F2A3F
:10008000122313086462364955225000050300000C
:10009000001C2241000041221C0014083E081408E4
:1000A000083E0808005030000008080808080060F2
:1000B00060000020100804023E5149453E00427F86
:1000C000400042615149462141454B311814127F8D
:1000D0001027454545393C4A494930017109050316
:1000E0003649494936064949291E0036360000007E
:1000F0005636000008142241001414141414004150
:100100002214080201510906324979413E7E11113B
:10011000117E7F494949363E414141227F4141227A
:100120001C7F494949417F090909013E4149497AF2
:100130007F0808087F00417F41002040413F017F48
:10014000081422417F404040407F020C027F7F0420
:1001500008107F3E4141413E7F090909063E415159
:10016000215E7F09192946464949493101017F012C
:10017000013F4040403F1F2040201F3F4038403F4C
:100180006314081463070870080761514945430068
:100190007F41410002040810200041417F00040219
:1001A0000102044040404040000102040020545439
:1001B00054787F48444438384444442038444448C0
:1001C0007F3854545418087E0901020C5252523E92
:1001D0007F0804047800447D40002040443D007FB7
:1001E0001028440000417F40007C041804787C08FB
:1001F00004047838444444387C1414140808141453
:10020000147C7C080404084854545420043F44409F
:10021000203C4040207C1C2040201C3C4030403C86
:1002200044281028440C5050503C4464544C440022
:100230000836410000007F00000041360800100829
:1002400008100800000000001200AE01A83F0120C5
:10025000000221007F02220007004001D30000A11C
:1002600000C801DA1201817F00A400A601D5800137
:10027000D9C201DB20018D1400AF11241FBECFEFC6
:10028000D8E0DEBFCDBF11E0A0E0B1E0EAEEF6E0DD
:1002900002C005900D92A432B107D9F725E0A4E27F
:1002A000B1E001C01D92A632B207E1F70E944203FD
:1002B0000C9473030C94000083E08093B800E9EB86
:1002C000F0E08081908182708160892B8083089525
:1002D0008091B90087758093B90084EA8093BC004F
:1002E0008091BC0087FFFCCF8091B900887F883067
:1002F00049F08091B900887F803121F08091B90068
:10030000887F089580E00895880F8093BB0084E87B
:100310008093BC008091BC0087FFFCCF8091B90026
:10032000887F883121F08091B900887F089580E02E
:1003300008958093BB0084E88093BC008091BC004A
:1003400087FFFCCF8091B900887F883221F08091AF
:10035000B900887F089580E00895880F990B816027
:100360008093BB0084E88093BC008091BC0087FF31
:10037000FCCF8091B900887F803421F08091B90052
:10038000887F089580E0089584E98093BC000895F3
:10039000CF93C82F0E946801811104C08C2FCF9188
:1003A0000C948401CF910895CF93C82F80E80E94C8
:1003B0009901811104C08C2FCF910C949901CF9198
:1003C0000895FF920F931F93CF93DF93D82FE8E404
:1003D000F2E0C4910E945C018D2F0E94C80181113E
:1003E0001FC0D0E0E9E4F2E02097B9F0F4908F016B
:1003F0000E5F1F4F319684910E94D401811110C06D
:10040000F801FF2041F0F80184910E94D401FA9490
:100410000F5F1F4FF3CF2197E7CF0E94C40180E009
:10042000DF91CF911F910F91FF9008950E94C80115
:10043000811103C086EA0C94D40108950E94C8017A
:10044000811103C087EA0C94D4010895CF93DF9300
:100450000E94C801811113C080E40E94990181119A
:100460000EC0C4E2D1E089910E949901811107C0B8
:1004700085E0C432D807B9F70E94C40180E0DF915B
:10048000CF91089580E094E0E4E2F1E0DF019C0187
:100490001D9221503040E1F7089590E020E8629FDE
:1004A000800D911D112490932505809324050895B6
:1004B0002091240530912505C901880F892F881FB7
:1004C000990B91952A5F482F479544274795241B00
:1004D00027FF10C0883060F4863060F48F5F20E81A
:1004E000829FC0011124909325058093240502C0AA
:1004F00081E0089580E00895CF93C82F0E945802AC
:10050000813011F12091240530912505D901AC5D90
:10051000BE4F45E0C402C001112440E050E0805AC3
:100520009109FC01E40FF51FE859FF4FE491ED93A9
:100530004F5F5F4F45305105A1F72A5F3F4F309322
:1005400025052093240580E0CF910895CF93DF9374
:10055000EC018991882319F00E947C02FACFDF9187
:10056000CF91089587FF02C0613420F5262F26958C
:100570002695269530E0F901F695FE2FEE27F795A2
:10058000E795E80FF11DCF01019690932505809323
:100590002405EC5DFE4F88E0289F6019112481E05E
:1005A00090E001C0880F6A95EAF79081892B8083DB
:1005B00080E0089581E008958F929F92AF92BF925C
:1005C000CF92DF92EF92FF920F931F93CF93DF931F
:1005D000082FA62E142FB22E262F30E0281B31090B
:1005E0008B2D90E0841B910937FF06C03195219532
:1005F000310999249A9402C09924939497FF06C0D4
:1006000091958195910988248A9402C088248394C5
:100610007C01EE0CFF1C6901CC0CDD1C82179307DA
:1006200094F4E701C21BD30B612F802F0E94B2020A
:100630000A15D1F0090DD7FD03C0180DCC19DD093D
:10064000CE0DDF1DF1CFEC01CC19DD09612F802F1C
:100650000E94B2021B1541F0180D1C161D06A4F3D2
:10066000090DCE0DDF1DF0CF80E0DF91CF911F91FE
:100670000F91FF90EF90DF90CF90BF90AF909F9041
:100680008F9008958CE30E94E1010E9442020E9433
:10069000420224E044E06FE780E00E94DC0261E077
:1006A00087E00E944D0282E091E00E94A60222E1D2
:1006B00042E16FE780E00E94DC0263E088E20E9492
:1006C0004D0286E191E00E94A60265E085E30E946A
:1006D0004D028FE191E00E94A6028CE30E94260267
:0A06E00080E090E00895F894FFCF49
:1006EA00000453534431333036204F4C45442044A0
:1006FA005249564552004D415449415355530032CF
:04070A003032310058
:00000001FF
