:100000000C943D010C945A010C945A010C945A0121
:100010000C945A010C945A010C945A010C945A01F4
:100020000C945A010C945A010C945A010C945A01E4
:100030000C945A010C945A010C945A010C945A01D4
:100040000C945A010C945A010C945A010C945A01C4
:100050000C945A010C945A010C945A010C945A01B4
:100060000C945A010C945A01000000000081811880
:1000700081810007000700147F147F14242A7F2A3F
:10008000122313086462364955225000050300000C
:10009000001C2241000041221C0014083E081408E4
:1000A000083E0808005030000008080808080060F2
:1000B00060000020100804023E5149453E00427F86
:1000C000400042615149462141454B311814127F8D
:1000D0001027454545393C4A494930017109050316
:1000E0003649494936064949291E0036360000007E
:1000F0005636000008142241001414141414004150
:100100002214080201510906324979413E7E11113B
:10011000117E7F494949363E414141227F4141227A
:100120001C7F494949417F090909013E4149497AF2
:100130007F0808087F00417F41002040413F017F48
:10014000081422417F404040407F020C027F7F0420
:1001500008107F3E4141413E7F090909063E415159
:10016000215E7F09192946464949493101017F012C
:10017000013F4040403F1F2040201F3F4038403F4C
:100180006314081463070870080761514945430068
:100190007F41410002040810200041417F00040219
:1001A0000102044040404040000102040020545439
:1001B00054787F48444438384444442038444448C0
:1001C0007F3854545418087E0901020C5252523E92
:1001D0007F0804047800447D40002040443D007FB7
:1001E0001028440000417F40007C041804787C08FB
:1001F00004047838444444387C1414140808141453
:10020000147C7C080404084854545420043F44409F
:10021000203C4040207C1C2040201C3C4030403C86
:1002200044281028440C5050503C4464544C440022
:100230000836410000007F00000041360800100829
:1002400008100800000000001200AE01A83F0120C5
:10025000000221007F02220007004001D30000A11C
:1002600000C801DA1201817F00A400A601D5800137
:10027000D9C201DB20018D1400AF11241FBECFEFC6
:10028000D8E0DEBFCDBF11E0A0E0B1E0E6EEF8E0DF
:1002900002C005900D92A230B107D9F725E0A2E087
:1002A000B1E001C01D92A630B207E1F70E944504FB
:1002B0000C9471040C94000083E08093B800E9EB87
:1002C000F0E08081908182708160892B8083089525
:1002D0008091B90087758093B90084EA8093BC004F
:1002E0008091BC0087FFFCCF8091B900887F883067
:1002F00049F08091B900887F803121F08091B90068
:10030000887F089580E00895880F8093BB0084E87B
:100310008093BC008091BC0087FFFCCF8091B90026
:10032000887F883121F08091B900887F089580E02E
:1003300008958093BB0084E88093BC008091BC004A
:1003400087FFFCCF8091B900887F883221F08091AF
:10035000B900887F089580E00895880F990B816027
:100360008093BB0084E88093BC008091BC0087FF31
:10037000FCCF8091B900887F803421F08091B90052
:10038000887F089580E0089584E98093BC000895F3
:10039000CF93C82F0E946801811104C08C2FCF9188
:1003A0000C948401CF910895CF93C82F80E80E94C8
:1003B0009901811104C08C2FCF910C949901CF9198
:1003C0000895FF920F931F93CF93DF93D82FE8E404
:1003D000F2E0C4910E945C018D2F0E94C80181113E
:1003E0001FC0D0E0E9E4F2E02097B9F0F4908F016B
:1003F0000E5F1F4F319684910E94D401811110C06D
:10040000F801FF2041F0F80184910E94D401FA9490
:100410000F5F1F4FF3CF2197E7CF0E94C40180E009
:10042000DF91CF911F910F91FF9008950E94C80115
:10043000811103C086EA0C94D40108950E94C8017A
:10044000811103C087EA0C94D4010895CF93DF9300
:100450000E94C801811113C080E40E94990181119A
:100460000EC0C6E0D1E089910E949901811107C0B8
:1004700085E0C630D807B9F70E94C40180E0DF915B
:10048000CF91089580E094E0E6E0F1E0DF019C0187
:100490001D9221503040E1F780E00895CF93DF9323
:1004A000D62FC42F0E94C80181112DC081E20E9465
:1004B000D401811128C08D2F0E94D401811123C045
:1004C0008FE70E94D40181111EC06D2F70E07093E0
:1004D00005016093040182E20E94D401811113C0DE
:1004E0008C2F0E94D40181110EC087E00E94D4019C
:1004F000811109C04C2F50E0509303014093020139
:100500000E94C40180E0DF91CF9108952091040101
:10051000309105012A5F3F4F20383105A0F040910E
:100520000201509103014730510578F41092050102
:10053000109204014F5F5F4F5093030140930201FB
:1005400060E00C944E0280E0089581E00895CF931E
:10055000C62F0E94C801811116C080E40E94990133
:10056000811111C08C2F0E94990181110CC08091C2
:100570000401909105010196909305018093040177
:100580000E94C40180E0CF910895FF920F931F93C2
:10059000CF93DF93F62EC42F0E94C801811126C08D
:1005A00080E40E949901811121C000E010E0D0E0B8
:1005B0000C171D07C0F480910401909105018F373D
:1005C000910588F48F2D0E9499010F5F1F4F8111B3
:1005D0000DC0809104019091050101969093050151
:1005E00080930401E5CF0E94C40180E0DF91CF91A8
:1005F0001F910F91FF9008950F931F93CF93DF9357
:10060000D82FC62F0E948602811132C08D2F0E94E2
:10061000C80181112EC080E40E949901811129C076
:1006200085E0C802E001112400E010E0C05AD109C1
:10063000FE01E00FF11FE859FF4F84910E949901DC
:10064000811117C00F5F1F4F0530110589F70E94F8
:10065000990181110EC080910401909105010696C7
:1006600090930501809304010E94C40180E001C0C1
:1006700081E0DF91CF911F910F9108951F93CF9348
:10068000DF93182FEB016991662331F0812F0E94CF
:10069000FC028823C1F301C080E0DF91CF911F915C
:1006A00008951F93CF93DF9367FF03C0413408F091
:1006B00053C0C42FD62F0E94C80181114EC081E2C1
:1006C0000E94D401811149C08D2F0E94D401811153
:1006D00044C08FE70E94D40181113FC06D2F70E0AC
:1006E000709305016093040182E20E94D40181119C
:1006F00034C01C2F169516951695812F0E94D40193
:1007000081112BC087E00E94D401811126C0D0E066
:10071000D0930301C093020180E40E9499018111EA
:100720001CC088E0189FC019D109112481E001C0C4
:10073000880FCA95EAF70E94990181110EC0809135
:1007400004019091050101969093050180930401A5
:100750000E94C40180E001C081E0DF91CF911F9130
:1007600008957F928F929F92AF92BF92CF92DF9225
:10077000EF92FF920F931F93CF93DF93E82EF62E05
:10078000742E122F802E242F30E0261B3109802F4B
:1007900090E0811B910937FF05C031952195310902
:1007A0000FEF01C001E097FF06C091958195910977
:1007B00099249A9402C0992493946C01CC0CDD1C6A
:1007C0005901AA0CBB1C821793079CF4E601C21BBB
:1007D000D30B412F6F2D8E2D0E945103F714D9F0AA
:1007E000F00ED7FD03C0190DCA19DB09CC0DDD1DB4
:1007F000F0CFEC01CA19DB09412F6F2D8E2D0E941D
:100800005103181541F0190D1C161D069CF3F00E2E
:10081000CC0DDD1DEFCF80E0DF91CF911F910F91C7
:10082000FF90EF90DF90CF90BF90AF909F908F9010
:100830007F9008950F931F93CF93DF9367FF02C0BC
:100840004134E8F4122FC42FD82F042F06950695B3
:100850000695402F0E944E024C2F50E088E0089FE2
:1008600040195109112461E070E001C0660F4A95FA
:10087000EAF7412F8D2F0E94C50280E001C081E080
:10088000DF91CF911F910F9108958CE30E94E101B8
:100890008CE30E94420240E060E08CE30E9451033E
:1008A00041E060E08CE30E94510342E060E08CE3B1
:1008B0000E94510341E061E08CE30E94510342E059
:1008C00062E08CE30E94510343E063E08CE30E940A
:1008D000510344E064E08CE30E94510380E090E027
:0608E0000895F894FFCF1B
:0208E60000040C
:00000001FF
